:1000000006308A00042E00000A108A100A118207A6
:100010004C34693471347534693464344334723423
:1000200079347334743461346C3450344934433427
:1000300000340A108A100A118207493463346F347D
:100040006E346F3473343A34203400340A108A101A
:100050000A118207543465346D3470343A342034D4
:1000600000340A108A100A118207523441344D3488
:10007000203453347434723469346E346734203429
:100080004F344B34213400340A108A100A1182078D
:1000900043347534723473346F34723420344F34D3
:1000A0004E342E342E342E3400340A108A100A11A5
:1000B000820742346C3469346E346B3420344F34EC
:1000C0004E342E342E342E3400340A108A100A1185
:1000D000820743346F346E347434613464346F3463
:1000E00072342034613463347434693476346F3458
:1000F0003A3400340A108A100A1182072934203455
:1001000020342034203420340034B530840083136C
:100110000008031998280630F800F701F70B8E281D
:10012000F80B8D287B30F700F70B9428800B8B2879
:10013000080083163C18A02883120812A2288316F0
:100140008312081683160812BC18AA288312881274
:10015000AC28831683128816831688123C19B4289B
:1001600083120813B6288316831208178316081300
:10017000BC19BE2883128813C028831683128817DF
:100180008316881300008811831288150330F70046
:10019000F70BC8288316881183128811080083166C
:1001A0000811831208115330F700F70BD528831676
:1001B000B9080319E028081183120815E3288316EB
:1001C0000811831208110000831688118312881108
:1001D00083163A0EBB000F30BB053B08BC008312F0
:1001E000992083163A080F39BB00BC00831299206E
:1001F00008008316081183120811831688118312D0
:10020000881132308316B50083128520E001600822
:10021000023C031C172903308316BC00831299206B
:1002200005308316B50083128520E00A07290230C5
:100230008316BC008312992001308316B500831207
:1002400085205F08013C031828292830E1002A296D
:100250002030E1008316B901831261088316BA00C9
:100260008312CF2005308316B500831285208316B4
:10027000B9010C30BA008312CF2005308316B500C7
:10028000831285208316B9010130BA008312CF2072
:1002900005308316B500831285208316B901063018
:1002A000BA008312CF2005308316B5008312852053
:1002B0008A110A124B2E0730DE055E0DF700F70D8E
:1002C000F70DF830F70577084038E2008316B901DA
:1002D000831262088316BA008312CF20E1016108FD
:1002E000073C031C862961085F078400831360189C
:1002F00083170008E20001308316B90083126208F8
:100300008316BA008312CF20E10A6F298316B90140
:100310008030BA008312CF2008008316B901013063
:10032000BA008312CF2002308316B50083128520D5
:10033000080083163608013A83120319A929033AE3
:100340000319AC29013A0319B029073A0319B42952
:10035000B9298316B701BB2940308316B700BB29E2
:1003600014308316B700BB2954308316B700BB295D
:1003700083128316B70101303502B707370880387A
:10038000B800B9013808BA008312CF200800013044
:100390005E07E00001305F07E10060088316B500EA
:1003A000831261088316B600831299210800831610
:1003B00034080C3A83120319E429063A0319F02988
:1003C000023A0319F829FF298316B9010130BA004E
:1003D0008312CF2002308316B50083128520062AAF
:1003E00001308316B5000230B60083129921062A27
:1003F0008316B9011030BA008312CF20062A0130CB
:100400008316B9003408BA008312CF2008006108AF
:10041000FA006008840083137A1883178008031990
:10042000222A6108FA006008840083136118831788
:100430000008E2008316B4008312D721E00A0319F2
:10044000E10A072A080001308316B90083125E080A
:100450008316BA008312CF200800F801F901F701D2
:10046000FA0183163608031D382A35080319522A63
:100470001030B7000310B30DB40DF70DFA0D3608A8
:100480007A02031D452A35087702031C4E2A3508D7
:10049000F702031CFA033608FA020314F80DF90DEB
:1004A000B70B3A2A83120800EE016D08013C0318CD
:1004B0005D2A6D08103C03185F2A0A30ED00EB0836
:1004C000031D6B2AEC08031D6B2A30308316B40021
:1004D0008312D721B92AEB08031D712AEC080319EE
:1004E000AA2A6C088316B40083126B088316B30023
:1004F000B60183126D088316B50083122D2277088A
:10050000EF006F08093C031C8E2A6E08EE0AA03E1D
:100510008400831330306F078000972A6E08EE0A3C
:10052000A03E8400831341306F07F63E80006C08C4
:100530008316B40083126B088316B300B6018312CE
:100540006D088316B50083122D227908EC00780817
:10055000EB006B2AEE080319B92AEE03A0306E07F0
:10056000840083130008F0008316B4008312D7219F
:10057000AA2A080062080A3C031DCA2AE11FCA2AE7
:100580002D308316B4008312D721E009E109E00A77
:100590000319E10A6108EC006008EB006208ED0055
:1005A000542208008E30F7006B08F7026C08F9003F
:1005B0006D08F800F917F7080319E92A0310F9087C
:1005C000031DE52AF8080319E92AF90CF80CF70BC2
:1005D000DE2AEC1FF02AF809F909F80A0319F90ACA
:1005E00008008E30F7006C08F8006B08F900FA017B
:1005F000F808031D052B7908F800F9010830F70207
:10060000F808031D052BF7010D2B0310F81B0C2B0D
:10061000F90DF80DF703052BF81308008030831847
:10062000F0068316A201A30183126C088316A100B1
:100630007008A10683126B080319162C8316A000FC
:10064000F70083126F080319212C8316A0020319E7
:10065000B62B031C6A2B7008A600A6177108A5000C
:100660007208A400A3010310A60CA50CA40CA30CF3
:10067000A00B322BA11F3F2B22143A2C221020104A
:1006800022166E30840083134F2C2212A11B522B92
:10069000201C5D2BA60CA50CA40CA30CF70A0319B7
:1006A000352C5D2BA61B602B0310A30DA40DA50DEF
:1006B000A60DF7030319352C522B2217D82B221322
:1006C00083126C088316A100A11F682BA6172E2C7D
:1006D000A6132E2C83126F088316A000F700831236
:1006E0006B088316A00283126C088316A600A61757
:1006F00083126D088316A50083126E088316A4006A
:10070000A3010310A60CA50CA40CA30CA00B802B1A
:10071000A11F8D2BA2143A2CA2102010A216723009
:10072000840083134F2CA212A11BA02B201CAB2BE7
:10073000A60CA50CA40CA30CF70A0319352CAB2BA3
:10074000A61BAE2B0310A30DA40DA50DA60DF7033C
:100750000319352CA02BA217D82BA2137008A100C7
:10076000A11FB42BA6172E2CA6132E2C7008A600A2
:10077000A6177108A5007208A400A11FC32BA61319
:1007800022153A2C2211A30120106E30840083130D
:100790004F2CA11BEE2B83126C088316A100201C8A
:1007A000D82BA60CA50CA40CA30CF70A0319352C06
:1007B000A31FE92BA40A031DE92BA50A031DE92B9E
:1007C000A60A031DE92BA60CA50CA40CF70A031915
:1007D000352C221B5F2BA21BAD2B0F2C8030A606C5
:1007E000A61FF62B3A2C7008A100052C83126C086A
:1007F0008316A100A608031D052CA508031D052CC2
:10080000A408031D052CF7012E2CA61B0F2C03108A
:10081000A30DA40DA50DA60DF70B052C352CA11FBE
:10082000132CA6172E2CA6132E2C83126F08F7005C
:1008300070088316A6007108A5007208A4002E2C6B
:1008400083126B08F7006C088316A60083126D08EC
:100850008316A50083126E088316A4002608F800EC
:100860002508F9002408FA006D2CF701F801F901B8
:10087000FA016D2CA301A409A509A609A309A30ADD
:10088000031D482CA40A031D482CA50A0319A60A17
:1008900022183E2BA2188C2B2219C22BF32B0008F6
:1008A000A407031C592CA50A031D592CA60A0319D9
:1008B000201484030008A507031C612CA60A031951
:1008C000201484030008801F803AA6070318201410
:1008D000221A452BA21A932BC92B831208006108F8
:1008E000EE006008ED005F08EC005E08EB00F2012E
:1008F000F101F001EF016C08F3007008F306F31F3B
:10090000862C03110310EC1B0314B92C6C08F300A4
:100910006F08F4006B08F4020319942CF31FB92C30
:100920000308013A8300B92C7008F4006C08F40243
:100930000319A02CF31FB92C0308013A8300B92C2A
:100940007108F4006D08F4020319AC2CF31FB92CE4
:100950000308013A8300B92C7208F4006E08F4020F
:100960000319B82CF31FB92C0308013A8300B92CE2
:100970000310031CC32C2D308316B4008312D7211F
:100980005F08803ADF006108EE006008ED005F0854
:10099000EC005E08EB00D2227908E4007808E3005E
:1009A0006408EC006308EB00F12283146108EE0098
:1009B0006008ED005F08EC005E08EB007A08F200CA
:1009C0007908F1007808F0007708EF000E237A0824
:1009D000E8007908E7007808E6007708E500640891
:1009E000EC006308EB000A30ED005422E208031922
:1009F000DD2D2E308316B4008312D721E901620861
:100A000069020318DD2D6808EE006708ED0066082E
:100A1000EC006508EB00F201F1012030F0008230BB
:100A2000EF006B0803199D2D8316A00083126F0839
:100A300003199D2D8316A0070318292D7F30A002CE
:100A40000318242D83129D2D031D282D83129D2D07
:100A50002F2D8130A007031C2F2D83129D2D2008E0
:100A6000F700F801F901FA0183126C088316A4005B
:100A7000A41783126D088316A30083126E088316D1
:100A8000A2001830A000A101221C632D7208FA07F1
:100A9000031C502DF90A031D502DF80A0319A11744
:100AA0007108F907031C572DF80A0319A1177008DC
:100AB0008312ED00ED176D08F807031C622D8316F5
:100AC000A11783128316A10DF80CF90CFA0CA40CD3
:100AD000A30CA20C0310A00B432D0130F707031C3D
:100AE000732D83129D2DF81B7D2DA40DFA0DF90D8C
:100AF000F80DF70B7D2D83129D2DA41F902DFA0A62
:100B0000031D902DF90A031D902DF80A031D902D49
:100B1000F80CF90CFA0CF70A031D902D83129D2D89
:100B200083126C088316A1007008A106A11F9A2DDC
:100B3000F817A22DF813A22D8312F701F801F9017D
:100B4000FA0183167A088312E8007908E70078082A
:100B5000E6007708E5006808EE006708ED00660823
:100B6000EC006508EB00D2227808EA0030306A0712
:100B7000EB008316B4008312D721EC016A08EB0066
:100B8000F12283146808EE006708ED006608EC00A7
:100B90006508EB007A08F2007908F1007808F000A7
:100BA0007708EF000E237A08E8007908E700780854
:100BB000E6007708E500E90AFF2C8A110A120E2FD9
:100BC0008316B9010E30BA008312CF208A110A129F
:100BD0004E2F8316B9010D30BA008312CF208A112F
:100BE0000A126D2F8316B9010C30BA008312CF2080
:100BF0008A110A12772F8316B9010C30BA008312BA
:100C0000CF208A110A12782F03081F398300831618
:100C10001F149F141F159F1107309C00831383120C
:100C2000A0010A30A1001F30A200A3000E30A400D2
:100C30000430A500A601A701A8000E30A900AA0053
:100C4000AB001F30AC00AD010430AE00AF0102308C
:100C5000B0000430B1000830B2001F30B3000430DF
:100C6000B4000830B5001030B600B701C801FA3042
:100C7000CC007E30CB004B30CA008330C9001F103F
:100C800083161F149F141F159F1110308312DE004E
:100C90000230DF00F928DE01E0012030DF005B21B7
:100CA0000130DE00E0012830DF005B210230DE0091
:100CB000E0013030DF005B218D21DE01DF01C72143
:100CC000F8011130F7004D308400831378080420B8
:100CD0008000F80A840AF70B662EE1014D30E0002F
:100CE0000722DE010130DF00C721F8010930F700DB
:100CF0004D3084008313780819208000F80A840A94
:100D0000F70B7B2EE1014D30E0000722DE012322AC
:100D100020308316B4008312D7210130DE00232255
:100D200020308316B4008312D7210230DE00232244
:100D30000C30DE00FA308316B50083128520DE0BFE
:100D40009A2E8D21DE01DF01C7214830CD004530CC
:100D5000CE005830CF003A30D000D101E1014D3003
:100D6000E0000722EC01FF30EB001030ED005422D0
:100D70002030CD004230CE004930CF004E30D00080
:100D80003A30D100D201E1014D30E0000722EC0100
:100D90000A30EB000230ED005422DE010130DF00AA
:100DA000C7214430CD004530CE004330CF003A302B
:100DB000D000D101E1014D30E0000722FB30E1001D
:100DC0001E30E0000A30E200BA220E30DE00FA30B7
:100DD0008316B50083128520DE0BE72E8D21DE0100
:100DE000DF01C721F8010730F7004D30840083137D
:100DF000780826208000F80A840AF70BF82EE10113
:100E00004D30E00007224C08E1004B08E0004A08A2
:100E1000DF004908DE000230E2006F2C2030CD00F8
:100E20004330CE00CF01E1014D30E0000722DE016A
:100E3000DF013830840083135E0884075F083120A7
:100E4000800000380319272FDF0ADE0A192FDE0180
:100E50000130DF00C721E1013830E00007220E3009
:100E6000DE00FA308316B50083128520DE0B312FA9
:100E70008D21DE01DF01C721F8010D30F7004D3073
:100E800084008313780844208000F80A840AF70B52
:100E9000422FE1014D30E0000722E02D0830DE0056
:100EA000FA308316B50083128520DE0B502FDE0149
:100EB0000130DF00C721F8010C30F7004D3084000D
:100EC0008313780855208000F80A840AF70B612FF5
:100ED000E1014D30E0000722E92D0830DE00FA3054
:100EE0008316B50083128520DE0B6F2FF22DFB2DAC
:100EF0008D21DE01DF01C721F8011130F7004D30EF
:100F000084008313780865208000F80A840AF70BB0
:100F1000822FE1014D30E0000722DE010130DF00C9
:100F2000C721DF014808DE005F08E1004808E00053
:100F30000A30E200BA222030CD002830CE00303016
:100F4000CF007830D000D101E1014D30E000072220
:100F5000DF014808DE005F08EC004808EB001030B5
:100F6000ED005422F8010730F7004D308400831360
:100F700078087A208000F80A840AF70BB82FE1017C
:100F80004D30E0000722C80A0230DE00FA30831636
:0E0F9000B50083128520DE0BC62F8D2F630067
:02400E00723FFF
:00000001FF
;PIC16F877A
;CRC=1680  CREATED="06-oct-26 12:24"
